:020000040001F9
:10800000683A00200DF9010027F9010029F9010063
:108010000000000000000000000000000000000060
:108020000000000000000000000000002BF901002B
:1080300000000000000000002DF901002FF90100F0
:10804000F9EC010031F9010031F9010031F90100C9
:1080500031F90100000000004DF7010031F9010085
:1080600031F9010031F9010031F9010031F9010064
:1080700031F9010031F9010031F9010031F9010054
:1080800031F901005DA2010031F9010031F901006F
:1080900031F90100E7A20100F39F010031F901006D
:1080A00031F9010031F9010000000000000000007A
:1080B00000000000000000000000000000000000C0
:1080C0000348854607F01CFE004800476D84010008
:1080D000683A0020401E00BF00BF00BF00BF00BFC5
:1080E00000BF00BF00BF00BF00BF00BF00BFF1D195
:1080F00070470000056885F308884068FF2464B273
:10810000EFF30585002D01D1A6460047254606461A
:1081100021273FBAF0B40024002500260027F0B440
:10812000F92040B200470000401E00BF00BF00BF62
:1081300000BF00BF00BF00BF00BF00BF00BF00BF47
:1081400000BFF1D17047000004460D461646314687
:10815000FD4807F0CDFCFD490D80FD480460084650
:108160000088FB48006800BFBFF34F8FFA49F94809
:10817000C860BFF34F8F00BF00BF00BFFDE70A46D6
:1081800001460020FFF7E0FF10B50178002907D075
:108190000021F24A084601F08EFF00280AD110BDE6
:1081A00040780028FBD00021ED4A084601F083FF0B
:1081B0000028F4D000221146FFF7C6FF70B5E94E43
:1081C0000C46154676790499059AB14209D1E649DB
:1081D0000978914205D11A46294607F043FC01204F
:1081E000207070BDF0B50546007A0027DD4CDF4EEB
:1081F00083B0002819D0009701976078002805D037
:10820000E06802F08EF900284ED167703764776419
:108210002078012806D1D448002203780821684636
:1082200004F05EFC04F051FC44E02079002816D0F4
:10823000EA79002A3ED0CE48E1784018691C07F060
:1082400011FCE879E1784018C0B2E070062831D31B
:10825000C74805F04BF9002826D1E7702AE0706C7A
:108260002F4605461421401C07F0D2FB306C491CF8
:1082700081421FD0E800BF4928184018092239461A
:1082800007F0F0FB706C1421401C07F0C1FB491C87
:108290007164607800280DD1FF210022ED31E06883
:1082A00002F0D3F8002803D000221146FFF74CFF5C
:1082B0000120607006F02AFE03B0F0BD10B5007812
:1082C00082B00E2852D201007944097949188F44AE
:1082D0004D06465F4D4D4D6D4D4D4F4D576DA64B67
:1082E00001224C21A54805F0E7FA002833D19E4928
:1082F000082001919B4C002300901A4601216079CF
:1083000005F0DEFA002826D101219D4800910023C6
:1083100001901A460221607905F0D2FA00281AD19C
:10832000022198480091002301901A4603216079A8
:1083300005F0C6FA00280ED19349012006F0ABFFE4
:10834000002808D106F0F5FFA07800280ED104F02F
:10835000B0FB00280AD000221146FFF7F5FE814944
:1083600001200870FF202D3006F076FD02B010BD10
:10837000002006F0D4FF7B490120087102B010BD37
:10838000012006F0CCFF77490020087102B010BD33
:108390007448002101708078002803D004F095FB18
:1083A00002B010BD04F08DFB02B010BD00210846E4
:1083B00006F088FD02B010BD10B5007805F0DDF8BC
:1083C00010BDF0B583B00026664C0096019620786B
:1083D000002849D0654D696C286C814208D16078CD
:1083E000002841D0E06802F09CF8002837D13AE03C
:1083F000C10041185F486B46425C1A700818C27988
:10840000002A11D0591CD30704D043786F46401C72
:10841000BB70491C520807D043784B7083788B702F
:10842000801C891C521EF7D14F48627903780821BD
:10843000684604F055FB002816D1286C1421401C16
:1084400007F0E6FA491C2964686C88420CD1607810
:10845000002809D0E06802F064F8002803D0002268
:108460001146FFF771FE667003B0F0BD4748A2B039
:1084700001268663464A1421302001F007FE0028B9
:1084800061D144480090444B0A220B21002001F0A6
:108490002EFF002857D1C821364807F00AFB334881
:1084A0000024046444643D4A01213D4801F0A4FFD6
:1084B000002848D1102201213A4806F0E4FB0028A8
:1084C00041D10225684605703C2101A807F0F1FA68
:1084D00035A0019038A002903DA004900394402163
:1084E000059468468183C6833B490183857608A845
:1084F000C670867046710471062168464185102158
:1085000081856421C18535490186032608A8067046
:108510004470334968460185FF210231418608A82D
:108520000475857546752F4814902F480E9008A83D
:108530008471684604F0AAFA00286DD12B48169081
:108540002B48179056E067E0F0210020162000200D
:10855000182000200400FA0500ED00E08DEE010077
:10856000C5EE01000020002006200020702C002015
:1085700010200020F02B002005200020F8FD010035
:108580000720002008200020E58101004005004070
:108590007022002043A2010008270020C3830100AD
:1085A0000C200020B98301005375706572204B6563
:1085B00079626F61726400004E6F72646963205368
:1085C000656D69636F6E647563746F72000000009F
:1085D000332E302E3000000015190000620200001A
:1085E000C1030000BD820100BD81010051F3010003
:1085F000FBCA01000D48189010A8067518A804754C
:10860000FF202D301F90202021902096084915A88A
:1086100006F0DAFB002803D000221146FFF794FD94
:1086200001F0C9FD06F01DFCFAE70000DBEC0100DB
:108630008981010038B50A88102A1CD0112A1CD063
:10864000502A1DD1027D002A1AD0CA884389891D6B
:108650009A4215D10A8B022A12D10268002A0FD041
:10866000CB7E8C7E19022143C907C90F09D0002196
:108670006B46197008E0898801E00021C9434182F6
:1086800038BD01216B4619701946904738BDF0B5C9
:10869000054693B0086828600020C04368820879C6
:1086A0002875FF20287401270E46684687736549A0
:1086B00081812A1D03A93846A0DF00287ED1287DAC
:1086C000002400280DD00120014668461031019495
:1086D0000171717B41718179F92001406846891CE3
:1086E0008171059406940794089409940A94694644
:1086F0000B94087D02210843694608752A7DEF2105
:10870000002A02D01022104300E008406A4610758B
:10871000287D002800D001A80A90012268468272B4
:10872000494B03810094B37B0370F37B43708078E3
:10873000F9231840F723801C18400F4638404108A1
:10874000490068468170317B017402A80C9068462C
:108750000E940F940D9002874487828704A810908E
:10876000A888AB1D0CAA05A9A2DF002832D1B068E9
:1087700000282DD001206946887234480881009471
:10878000307C0870002048708878F9210840F72173
:10879000801C08403840400840006946887011A895
:1087A000B16800F07BF902A90C9169460E940F9410
:1087B0000D9108874C87888711A800E00AE0109087
:1087C0002A46E8880E320CA9A3DF002802D100E077
:1087D000EC81204613B0F0BD73B487B0044608A9FD
:1087E000227C097800208A4225D00025012668468F
:1087F00000950680458008A801902174E188608A70
:108800006A46A4DF002816D1608A1149884215D033
:10881000207D002812D00295039504950595E188E6
:108820006846018186724188818104900198059093
:10883000608A02A9A6DF09B070BC704709B070BC9D
:10884000082070470F180000192A000008290000AE
:10885000FFFF0000F0B58FB01D4614460E0007461E
:1088600004D1002211461046FFF76EFC002C04D103
:10887000002211461046FFF767FC0020009001908F
:108880000290039004900590694606900A780221B0
:108890000A4369460A70012208A98A7069460F8452
:1088A00007902A780A776A784A77897FF9221140F7
:1088B000F722891C1140EF2211404A0852006946F4
:1088C0008A7708A9099107A90A910B900C9069462B
:1088D0008C85C8850C865D480D9609AA0088149B76
:1088E000A2DF0FB0F0BD30B585B004460120694667
:1088F000887157488880554A01A90120A0DF0028C7
:108900007ED1228825463C35002A08D05148009067
:108910002B4651486168FFF79DFF002870D12289DE
:10892000002A08D04D4800902B464D48E168FFF7DB
:1089300091FF002864D1228A002A08D0494800907B
:108940002B4649486169FFF785FF00287CD1228BBF
:10895000002A08D0454800902B464548E169FFF7BA
:1089600079FF002870D1228C002A08D0414800905D
:108970002B464148616AFFF76DFF002864D1228DC4
:10898000002A08D03D4800902B463D48E16AFFF799
:1089900061FF002858D1206B002829D00278694651
:1089A0000A720188FF22120211400A0A69464A72BD
:1089B000FF220168120411400A0C69468A7201689C
:1089C0002B460A0E6946CA7202790A73027A4A7302
:1089D00001890A0A69468A7380680822000CC873F4
:1089E0002848009002A92848FFF734FF00282BD11F
:1089F000606B00280BD02549009102792B4600E0DE
:108A000022E001682248FFF725FF00281CD1A06B57
:108A1000002818D0027869460A7242884A72120AFF
:108A20008A728288CA72120A0A73C0884873000A5E
:108A30008873184800902B46072202A91648FFF7B2
:108A400009FF002800D1002005B030BD1C20002007
:108A50000A1800001E200020292A000026200020DD
:108A6000242A00002E200020252A00003620002085
:108A7000272A00003E200020262A00004620002051
:108A8000282A00004E200020232A00005620002023
:108A90002A2A00005E200020502A00000A78027076
:108AA000497841700220704770B504460D4608466B
:108AB00007F00AF82080656070BD0000F0B504463C
:108AC00025460888FF3501264135002787B0102844
:108AD00027D011283DD0502840D0512837D18B794C
:108AE0008A1D2046012B32D15388857C00226C469A
:108AF000002D7DD90A2656433618B68A9E4278D173
:108B0000FD4D01262B46FF252D04AB433504FF26E2
:108B1000360435402B431206134323801A0C62801F
:108B2000B0E18888E8866089002810D0684606721F
:108B300000970680478002A801906189E88E6A4606
:108B4000A4DF002803D06168002900D0884707B05F
:108B5000F0BD0020C043E88607B0F0BD2046CC88B9
:108B6000EA8D8B1D944210D1198B0129F4D1016833
:108B70000029F1D0997E002904D00129ECD1694661
:108B80000E7113E069460F7110E04289944216D1CC
:108B9000198B0129E0D101680029DDD0997E0029D7
:108BA00009D00129D8D106216A461171026801A9AC
:108BB000904707B0F0BD05216A461171F6E76A8A51
:108BC000944229D1CD4AFF241146FF221204914339
:108BD0003A042404224011433A0611430091198BB0
:108BE0000229E6D101680029E3D0D97E9A7E01E00E
:108BF0000DE107E109021143C907C90F03D00221A2
:108C00006A46117102E003216A4611711146128809
:108C10000A814A884A81C9E7EE890A462032B4426D
:108C200011D1B64CFF252346FF242404A3433C0462
:108C30002D042C4023433C06234300930368002B60
:108C400032D107B0F0BD6E8CB4421AD1AC4AFF24C9
:108C50001146FF22120491433A0424042240114396
:108C60003A0611430091198B0229EAD101680029C3
:108C7000E7D0D97E9A7E09021143C907C90FC2D035
:108C8000BDE7ED8BAC421CD19D4CFF252346FF2454
:108C90002404A3433C042D042C4023433C062343DB
:108CA00000930368002BCCD004246B461C711C88F5
:108CB0001C815C885C818C8B9C81C98BD9810492DE
:108CC00074E76A460192857C0022AC46002D26D9C5
:108CD0000A2656433618368BA6421CD1864D0124EF
:108CE0002946FF252D042404A9432C4021431206C4
:108CF0001143019A1180090C5180198B0229A0D1CE
:108D0000016800299DD0D97E9A7E09021143C907C6
:108D1000C90FB4D073E7521CD2B29542D8D8002202
:108D200065466B46002D18D90A2656433618B68A72
:108D3000A6420ED1704E01253446FF2636042D047E
:108D4000B44335402C43120614431C80220C5A8035
:108D500041E0521CD2B29542E6D878252D5C002223
:108D6000002D1BD90A26564336184036768FA64268
:108D700010D1614D02262C46FF252D04AC4335044D
:108D8000FF26360435402C43120614431C80220C67
:108D90005A8020E0521CD2B29542E3D8DE252D5CE9
:108DA0000022002D00D84CE70A2656433618C0365C
:108DB000368CA64220D1504D03262C46FF252D048B
:108DC000AC433504FF26360435402C4312061443C9
:108DD0001C80220C5A800268002AE4D004236A46D0
:108DE000137113881381538853818B8B9381CB8BA1
:108DF000D38120310491D9E6521CD2B29542D3D806
:108E000007B0F0BD521CD2B2954200D972E6782567
:108E10002D5C0022002D1BD90A26564336184036F9
:108E2000768F9E4210D1344D02262B46FF252D040D
:108E3000AB433504FF26360435402B43120613435B
:108E400023801A0C62801DE0521CD2B29542E3D8F6
:108E5000DE252D5C0022002DD2D90A265643361875
:108E6000C036368C9E4218D1234E03253346FF264A
:108E700036042D04B34335402B431206134323809D
:108E80001A0C62800268002ABAD007232371238853
:108E9000238163886381059188E6521CD2B2954292
:108EA000DBD807B0F0BDFFB591B094460A7886468E
:108EB000D2060024F9271C9E1A9D1B98002A0BDA63
:108EC0000122134608AA1033089413702B785370AC
:108ED00093783B409B1C93700094019402940394FC
:108EE0000494059406940A786B461A700978C906AA
:108EF00008D508A907E000004D2A0000222A00003A
:108F0000332A000000210591012308AA9371FE492C
:108F10006A469184079469781177A9785177917F8F
:108F2000F7223940891C1140C2001143EF22114041
:108F300019436A46917709A80A9007A80B900C94E8
:108F40000D940E941486548660469086704600896F
:108F500033460AAA6946A2DF00282BD1012008A9BE
:108F60008871EA4869468884079468780877A87801
:108F70004877887FF7213840801C0840EF2108405F
:108F8000400840006946887709A80A9007A80B9016
:108F90000C940D940E940FA81499FFF77FFD694669
:108FA00008864C8688860FA80E9032463088083294
:108FB0000AA9A3DF15B0F0BDF0B50546887A9DB0CB
:108FC0000C460A287ED8207C0A287BD8207E0A28D6
:108FD00078D82068286060686860A07AA874217CCE
:108FE00078204155217EDE204155FF200021773039
:108FF000C9434153012008A98872C54869460885BC
:109000002A4608320AA90120A0DF002870D1204694
:1090100020300990807D002600280DD9A06B7100BA
:10902000415A288903AAA1DF002861D10998761C3A
:10903000807DF6B2B042F1D8207A002802D1607A61
:10904000002839D0002701970297039704970597C6
:1090500006976A4607971079062210436A461071F0
:10906000012608AA9670AB486A46214610843C3116
:10907000009708781070487850709078F92108406F
:10908000F721801C0840EF210840B04390700E97F4
:1090900008AA0F97167368460C920D906A461687B9
:1090A000578796870BA82B46109018890A330CAA6D
:1090B00001A9A2DF00281BD1A07A002838D0E168DE
:1090C000002900E053E133D00026002830D90827DA
:1090D000E168F0000B18002069460390087B02212C
:1090E0000843694608739979090702D0384302E0BA
:1090F00098E0F7210840102108436946087331467B
:109100000A204143D8794919C207181D1431D20FDA
:109110000291009001921A8803A928469B1CFFF730
:10912000C2FE00287ED1761CA07AF6B2B042CFD81B
:10913000207C00282CD06169002929D00026002835
:1091400026D908276069F100401800216A46049179
:10915000117C022211433943042211436A461174DF
:10916000C2790A2171434919D207031D7A31D20FFE
:109170000093029101920288831C04A92846FFF7FC
:1091800092FE00284ED1761C207CF6B2B042D9D88F
:10919000207E00282BD0E169002928D00026002855
:1091A00025D90827E069F100401800216A4604919A
:1091B000117C0222114339436A4611740A21324656
:1091C0004A435119C279031DD207E031D20F0093EF
:1091D000029101920288831C04A92846FFF763FECE
:1091E00000281FD1761C207EF6B2B042DAD80026C5
:1091F0000296039604960596069607966A46089682
:10920000117A022211436A46117201239371424975
:1092100091803046009009991491097B1170214684
:10922000213100E0A2E01291097B51709178F9227E
:109230001140F722891C1140EF22114019436A4660
:10924000917001A90E900F900D920C911090A18C2D
:1092500011875087A08C9087206A2B461090FF338F
:10926000288945330CAA02A9A2DF00287ED11498D0
:109270008079002802D0A16A002978D00027002830
:109280004FDD2846FF30413015900C3016900121FB
:10929000684681712149818001200146684620315C
:1092A0000096017000200146684641708078F921DF
:1092B0000840F721801C0840EF2108404108490080
:1092C00068468170A16AB800081818AA0BA965DF62
:1092D00000284BD101A80C9068460E960F9608A95D
:1092E0000D90087B694608874E87888718A81090DC
:1092F00015980CA98088169AA3DF002836D11498F7
:109300007F1C8079B8420BE04D2A0000082900003C
:10931000121800004E2A00004B2A00000729000006
:10932000B5DC207A002847D02846FF304F3023464E
:10933000433300901F460822DA49284600F061F9BD
:10934000002813D102960396049605960696079672
:1093500068460896017A0E20014368460172012191
:109360008171D14A82802B46462001E0A2E0B3E021
:109370000096025D684602703A7942708078F92260
:109380001040F722801C1040EF221040420852008B
:109390006846827001A80B9068460D960E960F964F
:1093A0000C908686C68601871889FF3357330BAA2F
:1093B00002A9A2DF00287DD1607A00280CD02846BF
:1093C000FF305F302346009040330822B7492846DB
:1093D00000F017F900287DD10B960C960D960E968D
:1093E0000F96109608A81196027B0220024308A847
:1093F0000273012268468272AD4A02810998009682
:10940000027D684602701298EF27027D684642701E
:109410008078F9221040F722801C10403840420822
:10942000520068468270228E02712146120A303143
:1094300042718A788271C978C17102A80390684626
:1094400004210596069604908182C682018301A8B4
:109450002B4607901889FF33673303AA0BA9A2DFB5
:10946000002837D103960496059606960796089627
:1094700068460996017B0420014368460173012177
:1094800081718C4A82803E34009622780270627824
:1094900042708078F9221040F722801C104038403A
:1094A000420852006846827006722B460F9601A849
:1094B000109600E00EE00D9068460E908187C687FA
:1094C00010A8018002A811901889FF336F330DAAEC
:1094D00003A9A2DF1DB0F0BD07201DB0F0BD30B460
:1094E0001446827C86B08A4228D90A2251430A183F
:1094F000FF304130C18E704D1432A9421AD06946F6
:109500000C800025029503950495059512880A8123
:1095100001228A728D8104910593C08E02A9A6DF73
:10952000002804D169460988A14200D00C2006B069
:1095300030BC704706B030BC0820704706B030BC65
:109540000720704730B4FF300C464130C18E5A4B73
:1095500086B099421AD06B461C800021029103917B
:1095600004910591C5891D8101259D7299810493FE
:109570000592C08E02A9A6DF002804D16946098899
:10958000A14200D00C2006B030BC704706B030BC01
:1095900008207047F0B50546FF35413589B01646BD
:1095A000E88E454C0E9AA04228D0D41CA0B26F463B
:1095B000388008281FD839727E72BB7202AE002A2A
:1095C00003D0F01C0F9906F04DFA0020049005908E
:1095D00006900790EA8B69460A8201228A74888283
:1095E00006910796E88E04A9A6DF002804D16946F3
:1095F0000988A14200D00C2009B0F0BD082009B0B4
:10960000F0BDF0B400258446681C020790B0120F2C
:1096100068461032009502701A7842708278F926F6
:109620003240921C82700395049505950695079526
:1096300008950995027B02200243684602739878D8
:1096400008270407F720002C01D03A4300E002402D
:10965000102422436C46227301220894A2722181B5
:1096600001955978217199786171A1790BAA3140DE
:10967000891C0140EF20014048084000A07102A869
:109680000B9001A80C900D950E950F95A586E5867B
:1096900027876046008903A9149BA2DF10B0F0BCA5
:1096A00070470000222A0000322A0000332A0000FE
:1096B0004A2A00004C2A0000FFFF0000002801D1C8
:1096C0000E20704730B40388E84C86B0A3421ED009
:1096D000E74B1B78002B1AD0E64B10251D705970F4
:1096E000002401259A7003216A4611820094019496
:1096F00002940394018A11809570948004A90291C8
:10970000039300886946A6DF06B030BC704706B0F8
:1097100030BC08207047F0B496B00E4604007DD0EF
:10972000002E7BD07068002878D00020C0432080B5
:10973000D14808AD0FC80FC5D048694608863231F8
:1097400008A863DF00286AD1221D0CA90120A0DF30
:10975000002864D108A8807CA0710025009501959F
:1097600002950395049505956846069501780420B1
:10977000014368460170A17910A88173C0498181B5
:10978000002001466846079501770120014668469A
:1097900010314177817FF9273940F720891C01403A
:1097A000EF200140012001436846817713A80D9006
:1097B00007A80E900F951095119568468587C58767
:1097C000142110A801802346988808330DAA694601
:1097D000A2DF002823D100950195029503950495F9
:1097E00005956846069502780820024310210A4331
:1097F00068460270A27910A88273A24A8281002072
:1098000002466846079502770120024668461032F4
:109810004277827FF9202346024001E062E05EE069
:10982000F727921C3A400A43012002436846827798
:1098300013A80D9007A80E900F95109511956846E6
:109840008587C587172110A80180988810330DAA35
:109850006946A2DF002842D1009501950295039543
:10986000049505956846069501780222114301701A
:10987000A17910A88173844981810120014668463D
:109880001031079501770020014668464177817FB6
:10989000F9200140891C3940EF200140012739435C
:1098A0006846817713A80D9007A80E900F95109524
:1098B00068468287C58710A802802346119698883B
:1098C00020330DAA6946A2DF002808D17068A06283
:1098D000B068002800D0E06265480770002016B02C
:1098E000F0BC704716B0F0BC0E207047002876D050
:1098F000002974D0F0B50D46816A8FB0002940D0A0
:10990000298810292AD0112938D0502928D0512946
:1099100037D10446A879AE1D022832D17088218A39
:1099200088422ED1A87A04282BD0062829D00528D1
:1099300027D002206946002708700C9708864F86BA
:109940000AA80D90A18A20880CAAB61CA5DF0028C1
:1099500019D0E16A002923D0884721E0A9880FE0C7
:10996000E988028991420CD108216A461171A97FC8
:1099700011732035029501A9826A60E00021C94374
:1099800001800FB0F0BD6846008DC007C00F07D042
:109990006846878020886946A8DF00285CD106E0F9
:1099A000FF20FE30694688802088A8DF54E0B17E21
:1099B0000120233509294BD20A007A4412799218E2
:1099C000974446040E181C20244228006A46177546
:1099D000328B022A09D36946087706952CE043E0CA
:1099E0006A461075328B022AF5D206222046FFF70E
:1099F00065FE31E00220694608751DE003206946D6
:109A0000087519E004206946087515E005206946C7
:109A1000087511E0308B032805D203220821204667
:109A2000FFF74CFE18E0307FF17E000208436946E4
:109A3000088307D006200875A26A05A9204690472A
:109A40000FB0F0BD0720F6E7092069460875F3E777
:109A500003222046FFF732FE0028F1D0E16A0029F8
:109A6000EED088470FB0F0BD70470000FFFF000048
:109A7000662000206720002044FE01003015000011
:109A8000321500003115000034150000FFB585B017
:109A900005460220864608980E9C02910090207888
:109AA0000190002728883E4600283FDD6868B10005
:109AB0004018028869460A8240884882002203A929
:109AC00004A865DF00285CD16846017B714520D180
:109AD000002F01D0002200E00222207889184118CE
:109AE0001F294DD8002F07D1401CC0B2411C009B3C
:109AF000029A21701A540127217800980A1803A9A4
:109B000004A865DF00283CD169462078097B40180D
:109B100020702888761CB042C8DC002F06D021783F
:109B20000198019A081A0099401E885407980290DB
:109B30001020864608980E9C0090207801900027FF
:109B400028883E46002842DD6868B1004018028837
:109B500069460A8240884882002203A904A865DF7A
:109B600000280ED16846017B714523D1002F01D01A
:109B7000002200E002222078891841181F2902D90A
:109B80000C2009B0F0BD002F07D1401CC1B2481C09
:109B9000009B029A20705A540127217800980A18D5
:109BA00003A904A865DF0028EBD169462078097B6A
:109BB000401820702888761CB042C5DC002F06D0E3
:109BC00021780198019A081A0099401E88540020B3
:109BD00009B0F0BDF7B582B0002000901070029877
:109BE0000226007814460D46002826D002984078B8
:109BF000801C1F287ED81D2069468880A81C01A9CA
:109C00007DDF002877D102980078022805D16846C8
:109C100080881D2801D8092108E002980821407891
:109C2000002801D01D2801D968468088421C2A706E
:109C300069702178801C08182070029880780028AC
:109C40001BD02078001D1F2854D801A879DF0028D8
:109C500051D121780322481C20706A54217819229E
:109C6000481C20706A542278684680885119087010
:109C7000000A48702078801C20700298C078002864
:109C80000ED021780122481C20706E542078411C8F
:109C900021702A540298C2782078411C21702A54DD
:109CA00002984068002811D000272178C757C81CA7
:109CB0001F281FD8481C20706E5421780A23481C86
:109CC00020706B542078411C21702F540298008919
:109CD00000280AD002982B46062202210094083060
:109CE000FFF7D4FE009000286CD10298008A00286B
:109CF0000DD001E065E065E002982B4607220321C4
:109D000000941030FFF7C2FE009000285AD102984C
:109D1000008B00280AD002982B46152214210094AB
:109D20001830FFF7B3FE009000284BD10298006A6C
:109D3000002839D0227829469446921D1F2A40D8FF
:109D40000288062A7ED31923DB016A4E9A4201D982
:109D5000B24277D14788062F74D39F4201D9B742C8
:109D600070D1B24203D0B74201D0BA426AD862463B
:109D7000521C052663462270CE54237812265A1CA4
:109D80002270CE5422780388521813701B0A537025
:109D90002278921CD2B22270408851190870000AB1
:109DA00048702078801C20700298466A002E2CD0C3
:109DB00030792378801CC0B2821C9A1829461F2A49
:109DC00002D90C2005B0F0BD5A1C2270401CC854AA
:109DD0002278FF23501C20708B5420783288401842
:109DE0000270120A42702078801CC0B22070B288C3
:109DF000002A0AD0B368002B4BD04019194605F051
:109E000031FE20783179401820700298203001907E
:109E1000007B00283AD002992E46896A002938D062
:109E2000002500282ED90298816A0C2068430F185B
:109E3000217838794A1C2270C01C70542078162270
:109E4000411C00E025E021703254217838888919BE
:109E50000870000A48702078801CC0B22070BA8850
:109E6000002A09D0B968002913D0801905F0FAFD3D
:109E7000207839794018207001986D1C007BEDB274
:109E8000A842D0D80020009005B0F0BD009805B0E1
:109E9000F0BD072005B0F0BD70B50C4692B00021B2
:109EA0006A46117007251171002809D0C178490749
:109EB0000CD502A9FFF78EFE002808D102AE00E003
:109EC0000026002C0ED0E078002802D0284612B0E0
:109ED00070BD01AA0AA92046FFF77CFE0028F6D132
:109EE0000AAA00E00022684603790178304672DF52
:109EF00012B070BDFFFF0000F7B50646002496467D
:109F000010001FD01C4D0198A10047582878002848
:109F100003D048DF28780028FBD118490120486089
:109F200017480268002AFCD037600268002AFCD07B
:109F300000224A6001680029FCD0641CA4B2361DCE
:109F40007445E0D3002003B0F0BD01210907096981
:109F50000A4B8AB24243022058600948016800292E
:109F6000FCD09A6001680029FCD00021596001688A
:109F70000029FCD0002070476E20002000E5014041
:109F800000E4014010B508461146FEF7F8F810BD90
:109F9000002901D10720704730B48C0702D0072078
:109FA00030BC7047374CA16062803749636010DF76
:109FB0000028F5D10120207016202EDF30BC70471C
:109FC00011DF002801D0012100E000212D4A11708D
:109FD0007047002803D02B49C860002070470E202E
:109FE0007047002803D027490861002070470E20E1
:109FF0007047F8B5234C6068002807D080470028D8
:10A0000003D000221146FEF79FF8F8BD2078002803
:10A01000FBD02069002807D00026E068002805D082
:10A020000025002E04D013E00126F6E70125F8E70D
:10A03000684651DF052806D0002806D000221146C8
:10A04000FEF782F804E0012602E0216900988847C3
:10A05000002D12D1608869460880A06861DF05285C
:10A0600006D0002806D000221146FEF76DF804E065
:10A07000012502E0E168A0688847002ED8D0002DB5
:10A08000CFD0F8BD70200020859F010010B4CB0018
:10A0900008339CB2930702D010BC072070475E4B78
:10A0A0009A601219DA6000225A701A7058809980EA
:10A0B00010BC10467047F7B5574C82B060880F4609
:10A0C000814275D80020694608705549534E48684A
:10A0D000C005C00D1DD0103840B200280ADB810831
:10A0E000504A8900891809688007C00EC1400806D7
:10A0F000850F0BE00207120F083A920892005118E0
:10A10000C9698007C00EC1400806850F012D01D125
:10A110000AE00425684636DF02280CD0002803D068
:10A1200000221146FEF710F822786078A188884254
:10A1300003DA401C02E072B6F6E70020C0B290429B
:10A1400007D066786078884201DA401C00E0002081
:10A150006070012D0BD062B66846007837DF0228A8
:10A1600005D0002803D000221146FDF7EDFF2B4853
:10A1700086421AD0A068F50004994151029900293D
:10A180000CD0002F0AD060883A464643E068301869
:10A1900005F068FCA0682818878002E000212818D4
:10A1A0008180002005B0F0BD02E0042005B0F0BDC4
:10A1B000092005B0F0BD10B5174C207861788142B8
:10A1C00029D021782078A288904201DA401C00E052
:10A1D000002020706088E26848438018A268CB00A5
:10A1E0009918D2588988904720786178814212D096
:10A1F00021782078A288904201DA401C00E00020FB
:10A2000020706088E26848438018A368CA00D118AB
:10A2100089889A58E7E710BD84200020FFFF0000DE
:10A2200000ED00E000E400E010B50446082904D089
:10A23000002211461046FDF787FF216860688847B5
:10A2400010BD00B583B001910090034A0821684613
:10A25000FFF731FF03B000BD29A20100F8B5FF49A7
:10A260000020086048608860C860FD490860486058
:10A27000FC4E3469601C35D0FB480027406871698A
:10A28000401A05022D0A24204443B0682218506861
:10A29000A84214D8B3692D1AC719146A002B09D023
:10A2A000D16990699847002807D000221146FDF730
:10A2B0004BFF02E09169D0698847601CE3D1B17817
:10A2C000F078814206D1401CC0B2F070022801D162
:10A2D0000020F0700006E549800D0F500120E44990
:10A2E00040050860F8BD10B500F077F910BDFFB566
:10A2F00081B01D4616460F4698077AD1002D78D0BA
:10A300000124DC4960040860BFF34F8FBFF36F8FF7
:10A31000D94940108860D9498860D94844602F20C5
:10A32000FDF7D8FED6488460CE4C002060612F2017
:10A33000FDF7D0FE002020710A98A0612770A5606B
:10A34000002F16D02C46103C28462438F90704D09C
:10A35000002124300170243421707A0809D00021B2
:10A360002423195419554830483401702170521E65
:10A37000F6D1BC4A03212420517047431146781975
:10A38000C860002201460270183142708670416038
:10A3900033461824634302725C1842728672C460AA
:10A3A00002741919427486744161AE49501E0861E5
:10A3B00008468270C2700124B24864050460B24B42
:10A3C0001868FF2109020322884392031043186092
:10A3D000AE480460A44B01989860AD4804688C4373
:10A3E0001443046058689F494861002005B0F0BDDF
:10A3F000FFE7072005B0F0BD70B49A4DAC68002CA3
:10A4000012D0002A13D0002811D02D780023002D5F
:10A4100007DD24265E43A65D002E0BD05B1CAB42FD
:10A42000F7DB70BC0420704770BC0820704770BC1C
:10A4300007207047242501265D4366552C1961705D
:10A44000A261036070BC00207047F0B4854B9D682A
:10A45000002D0CD01C78A04201D2052902D2F0BCFC
:10A4600007207047242444432E5D012E02D0F0BC07
:10A470000820704764196478012C14D00026854D9B
:10A480006C68E405E40D20D0103C64B2002C0CDBB9
:10A49000A508814FAD00ED192D68A407E40EE54035
:10A4A0002C06A40F0DE00E46E9E727073F0F083FF3
:10A4B000BF08BF007D19ED69A407E40EE5402C0636
:10A4C000A40F012C26D0032C26D002248C46DB6856
:10A4D000E100CC186378A7781D465B1C9F4200D131
:10A4E000002327789F4219D0182167684D437919B6
:10A4F00014D001250D7048605B48406888600E618B
:10A5000060464A61C8605A49637068050860F0BCDB
:10A51000002070470024D9E70124D7E7F0BC0420CD
:10A52000704750498A68002A09D00B78984201D3B5
:10A530000720704724234343D25C012A01D008201E
:10A540007047F0B4534B5A680424D205D20D002A48
:10A550001ED0103A52B2002A0ADB93084E4D9B00DF
:10A560005B191B689207D20ED3401A06920F0BE0BC
:10A5700015072D0F083DAD08AD00EB18DB699207FC
:10A58000D20ED3401A06920F012A1FD0032A1FD0E1
:10A590000222C968D2005218517895780B46491C9E
:10A5A0008D4200D10021167800258E4212D0182746
:10A5B00056687B43F3180DD002241C70586051700C
:10A5C0002B49200508602846F0BC70470022E0E7D0
:10A5D0000122DEE72046F0BC7047F0B5002095B0C0
:10A5E000C043204A0A90516908919378D478106941
:10A5F000A34211D05B1CDBB29370022B01D100236C
:10A6000093701B06194C9B0DE358079359180902C8
:10A61000090A5161012101E00021079111911149BD
:10A620000F90497804914A1E0292D2B205920D4AC7
:10A630000029D368109392680C927BD009490C9C36
:10A640004A69039249790D910E930599CA000E99B2
:10A6500055182B78697899427BD01FE04011014052
:10A66000001101409420002000150140B02000207E
:10A6700000E200E080E100E04013014000130140EF
:10A680000010014080E200E014E400E000E100E09E
:10A6900010E400E000ED00E000E400E01821594380
:10A6A0006A685B1C5118AA78DBB29A4200D1002379
:10A6B0000A78022A02D0032A48D13DE049682422C0
:10A6C0000E46514309198C46097D00293ED00246A9
:10A6D0000146471C2AD0B14207D00A4624215143E3
:10A6E0000919096A4F1CF6D120E0002F1ED08A42BA
:10A6F0000CD1242670430019006A461C06D1BF4FB6
:10A700000126BE600026039601260D96242671437D
:10A7100009194F687243096A121911624A1C05D05F
:10A720002422514309194A68D2194A60002162461D
:10A7300011750BE01AE00CE0411C07D00021242227
:10A74000504300190175006A421CF8D1697899429A
:10A7500083D1059A511EC9B20591002A00D074E731
:10A76000A7490861039848610D984871A448026997
:10A770000F98824201D0012000E000200F90119834
:10A78000002826D00024089E0799521C1FD09C4AFE
:10A79000242015690C9B6843C01843688B4202D97A
:10A7A000591A416013E0C91A1C190023436003754C
:10A7B000036A13610269002A07D037193F023F0A72
:10A7C0008760C2600A9A02620A955B1CDFD1012091
:10A7D0000F900A9811908A48029A0069099004998A
:10A7E000D2B20492002973D085490C9A4B69039325
:10A7F00049790D9110990E910499CB000E995C182E
:10A8000086E01199491C06D0119F242179438918AB
:10A810000B6A119323E0217818234B436568491C88
:10A82000C9B2EB182170A578A94201D1002121708D
:10A830005F68242179431D788918012D6CD10D7D25
:10A84000002D69D19D688D60DD68CD601D690D6149
:10A850005B69CB610D9B002B01D000238B608D6861
:10A86000039B684EEB1A1B021B0AB34203D2CD684E
:10A870005B194B600AE0039B5B1B1B02CD681B0A44
:10A880009D4201D9EB1A00E000234B6000238B604E
:10A89000CB6001230B759B1E0B6224217943891821
:10A8A0008C46411C15D061464B68242141438918D0
:10A8B00049688B420FD82421414389184968CB1A33
:10A8C0002421414389184B606146086238461FE0E5
:10A8D0002FE038461CE001460A9002E00A91296AFE
:10A8E0009B1B4D1C0BD024254D43AD186E689E421A
:10A8F000F4D324264E43B6187668F61A6E60654681
:10A900006B60634619620A992423594389180F62C0
:10A910001199491C00D074E7217863789942FAD1E3
:10A9200004994B1EDBB20493002900D064E734493C
:10A930000861334809990069884202D10F990029BA
:10A9400056D02F4D3049421C3AD0242358430C9BFB
:10A950002A46C01846682D4844685769E01B05021E
:10A960002D0A1079ED1C002812D10120284A00047C
:10A9700050604860274940000860274908601F4927
:10A98000012008602F20FDF7A5FB1D49012008715B
:10A99000B54200D23546E81900022049000A086095
:10A9A0001A494968001B091B0902090A0002000A2A
:10A9B000C91C81421CD9012019494004086017E0D4
:10A9C0000124184A60041060BFF34F8FBFF36F8FEC
:10A9D0000F4A401090608860084E74602F20FDF789
:10A9E00079FBB46000242F206C61FDF773FB2C71A0
:10A9F00003490020487115B0F0BD0000001001406F
:10AA000094200020FFFF7F0000130140001501404B
:10AA10004013014080E200E000E100E04015014009
:10AA200000E200E080E100E038B58549854A4888C9
:10AA300090420FD04A78844C521CD2B24A70237B89
:10AA4000934208D3814975DF002803D0A16900290A
:10AA500000D0884738BD00254D70217C002907D0E3
:10AA60003B2176DF002803D0A169002900D0884768
:10AA700061690029EED068460570884738BD70B519
:10AA80003CC871493CC18468436802688C604B6073
:10AA90006B4C00250A6025701038006800280CD027
:10AAA00001882181418861818188A181C188E181FA
:10AAB00066487ADF00280CD103E064487BDF002879
:10AAC00007D10020C043608065706068401C01D0E1
:10AAD000002070BD5E4A00215E48FFF78DFC70BD0E
:10AAE00010B557484068FFF71CFD10BDF8B5564C2F
:10AAF00007880026524A811CE389102F16D015467C
:10AB00006D68112F22D0122F37D0502F1DD1C18840
:10AB1000801D994219D1018B022916D1C17E827EF6
:10AB200008021043C007C00F0DD11CE08088508080
:10AB3000888A1082C88A5082088B9082488BD08283
:10AB40005670002B01D100F04BF8F8BD0020C04337
:10AB5000508056702846FFF7E4FC0028F5D0A16924
:10AB6000002908D1F8BD2846FFF7DBFC0028F9D002
:10AB7000A1690029F6D08847F8BD88881082C88866
:10AB80005082088990824889D08200F029F8F8BD67
:10AB9000F8B52B4E01883181418871818188B1815E
:10ABA000C188F18129487ADF050010D12A480124A3
:10ABB00041880838028891420BD34088814208D8E6
:10ABC00021484169002902D0684604708847284618
:10ABD000F8BD34701D49708875DF05467470F6E75E
:10ABE000F8B51D48184D4288083803880026144CD3
:10ABF00069699A420BD34088824208D80120002913
:10AC000003D06A461070684688472670F8BD2078E1
:10AC1000002804D00029F8D068460670F4E7607870
:10AC200000280AD0A96800226068FFF70EFC0028FF
:10AC3000EBD0A9690029E7D1E7E76968F3E70000ED
:10AC4000B8200020FFFF0000B82C0020C02000200A
:10AC500029AA0100BC200020C82000200346002AA9
:10AC600015D01088002911D0020A0002024318787A
:10AC7000491E50400206120F42401003504082B25B
:10AC80001006C00C50405B1C0029EDD170470148F4
:10AC9000E8E70000FFFF0000F8B50146FE4CFF4E5C
:10ACA000217030781423584300228019002920D0C5
:10ACB00001273F0701292FD0082502294DD003295C
:10ACC00027D1606928DF002823D0112877D00246D9
:10ACD0003078142148438019C3680C256B43F04D2C
:10ACE0000179ED58236A009343690C30A847042189
:10ACF000D4E7A261E261717800290AD0C18821629B
:10AD00000079012806D0032801D0042801D100F0E1
:10AD1000C3FCF8BD0121C1E7051D3869698880B20F
:10AD2000884210D2386980B2091A3869AB880004A9
:10AD3000820CE868C0182B694018591800F08CFC88
:10AD4000386980B207E0AA88E86880188A0829690B
:10AD500000F082FC6888E061F8BD6168051D4E085E
:10AD6000760066600069009001200007006981B2EA
:10AD7000009804F04DFE074660610120000700695D
:10AD80006A8881B20098401E101804F041FE02212A
:10AD9000874201D10E4300E08E4366603246E06890
:10ADA0000A400243BF4805D0002161700068804717
:10ADB000F8BD04E00221617080688047F8BD6068DA
:10ADC00028436060F8BD38B501242407206985B2A6
:10ADD000B5484069411C04D0216989B204F018FECD
:10ADE00000E060692169401E89B24843294604F0A9
:10ADF0000FFE28DF002817D0A74B112815D00246D8
:10AE0000A648142401780C2561430C18E0682179C8
:10AE10006843A34D2D58186A009020460C30636992
:10AE2000A8470420FFF738FF38BD586808210843B9
:10AE3000586038BD70B50124240720690004860CD1
:10AE4000206985B294484069454397484069411C50
:10AE500004D0216989B204F0DBFD00E0606921695A
:10AE6000401E89B248433246294600F0F5FB70BDCA
:10AE700038B5894C606928DF020014D0112A13D03C
:10AE80008648142301780C2559430818C3680179B2
:10AE90006B43834DED58236A009343690C30A847F8
:10AEA0000420FFF7F9FE38BD6068082108436060A0
:10AEB00038BD70B57948142201780125514308182E
:10AEC0002D0702692969C388008989B2181880187A
:10AED000044604F09DFD74480E464069411C04D0B0
:10AEE000296989B204F094FD00E068692969401E6F
:10AEF00089B24843684A81192046126900F0ACFBC8
:10AF000070BD10B568484069684C411C04D0216987
:10AF100089B204F07DFD00E060692169401E89B2BC
:10AF2000414320695C4A80B25369D2685B1E584332
:10AF300000F092FB10BDF0B5574C5A4D67680820E1
:10AF4000390783B000294EDB54481422017851435D
:10AF5000081801900121090702690969C38800895D
:10AF6000521E1818801889B2009004F051FD214635
:10AF70000E694C69002E0BD0844209D100200122B9
:10AF800017434F60C86048702868804703B0F0BD21
:10AF900001200007006981B2009804F039FD3E49A4
:10AFA00084420BD3844201D1002E07D0002E0DD055
:10AFB00003204870E868804703B0F0BD0020C860F7
:10AFC00002204870A868804703B0F0BD019800795E
:10AFD000042803D000F0DEFB03B0F0BD0120FFF732
:10AFE0005BFE03B0F0BD874367606078800028583F
:10AFF000804703B0F0BD10B5274841680A070ED45A
:10B00000264814220178514308180079042802D0F8
:10B0100000F0C0FB10BD0120FFF73EFE10BD08226E
:10B020009143416040781F4980000858804710BD17
:10B03000F8B519481B4E456808212A07002A52DB3B
:10B0400047697F1C4761C068002805D01249042069
:10B05000487030698047F8BD104814220178514388
:10B060000C180121090722690969E3882089521E09
:10B07000181889B2801804F0CBFC074987421BD30B
:10B080000A461269874201D1002A15D0002A20D031
:10B09000E80716D003200BE0D0200020D42C00209D
:10B0A000682E002054FE0100001000100000001067
:10B0B0004870F0688047F8BD02204870B06880474B
:10B0C000F8BD0120054300204D604870306880477E
:10B0D000F8BD2079042802D000F05CFBF8BD012007
:10B0E000FFF7DAFDF8BD8D434560407880003058A9
:10B0F0008047F8BD30B4F94908234868F84A040786
:10B10000002C09DB830702D5012318434860022085
:10B110004870906830BC0047984348604878800089
:10B12000105830BC0047ED48ED4A41680B0703D486
:10B1300001214170506800470823994341604078DD
:10B14000800010580047F8B5E44C082027782146C5
:10B150000097496846060A468143E2481425037869
:10B160006B431D18012F06D0022F56D0032F27D175
:10B17000100733D52FE012072DD4E988A28B891A46
:10B180000904090CE98019D0027814235A431518D0
:10B1900030692D1D80B2884213D2306980B2091AFD
:10B1A0003069AB880004820CE868C0182B6940182D
:10B1B000591800F051FA306980B20AE000F0EAFA5A
:10B1C000F8BDAA88E86880188A08296900F044FA5E
:10B1D0006888E061F8BD384661601BE067697F1CE4
:10B1E00067612A693169EB882889521E181889B26B
:10B1F000801804F00DFC87420BD3874202D12069EE
:10B20000002806D028790428D8D10120FFF744FD72
:10B21000F8BD0098FFF740FDF8BD6078B2498000A6
:10B2200008588047F8BD38B5AC4B0146187800285F
:10B2300013D0042811D002292BD003290DD119795C
:10B24000090726D499697D22491CD200996191424F
:10B250000AD0022802D0FFF71FFD38BD5878A04958
:10B2600080000858804738BD9E48142401780C257A
:10B2700061430818C46801796C439C4D1B6A2C59C2
:10B2800000930D2243690C30A0470420FFF704FD12
:10B2900038BDFFF758FF38BD70B50024914A2046ED
:10B2A0001470547002231421414389180C71CC800E
:10B2B0000C614C61CB60401C0C811428F3D3874D8A
:10B2C0008B486C8040698B4E411C04D0316989B237
:10B2D00004F09EFB00E070693169C01E89B24843EA
:10B2E0006C61A8608148046004814481C4608482E8
:10B2F000C4822C70AC610420EC616860002070BDD9
:10B30000F8B5044675480F460079400701D4082077
:10B31000F8BD002C1AD0002F18D02068002815D0B6
:10B32000012636073069A58880B2A84220D3102DA7
:10B330001ED3E088009000281AD06D484069411C57
:10B3400006D0316989B204F063FB02E00E20F8BD3B
:10B350007069012109070969401E89B248435F49A4
:10B36000009A8E686A439219904201D3A80701D0CF
:10B370000720F8BD4D88022D23D028460C214843D4
:10B380005A497E6002463D604018466023688B50F3
:10B39000A1880181E188012741813F073869E2885E
:10B3A00081B2A0885043401E04F048FB3969401C1C
:10B3B00089B24143891949486D1C8160458000204C
:10B3C000F8BD0420F8BD70B4444B1B795B0702D470
:10B3D00070BC08207047002818D0002A16D00368D7
:10B3E000022B10D20C24414D5C432E59002E0AD062
:10B3F000466860190489458940686143654371184E
:10B400002818884205D870BC0720704770BC0E20F1
:10B4100070471360516070BC00207047F8B51C463F
:10B420002E4B1B795B0701D40820F8BD00291CD0E6
:10B4300000281AD00368022B15D20C256B432B4D24
:10B44000EE58002E0FD05B195E891D895B686E4334
:10B45000F61843689E4206D9002A04D0954202D3CA
:10B460001619AE4203D90720F8BD0E20F8BD0D46CF
:10B470002543AD0701D19B0701D01020F8BD13462D
:10B480000A4601460120009400F0B1F9F8BDF8B574
:10B490001C46124B1B795B0701D40820F8BD00291C
:10B4A0002AD0002828D00368022B15D20C256B4324
:10B4B0000E4DEE58002E0FD05B195E891D895B681A
:10B4C0006E43F61843689E4206D9002A04D095427E
:10B4D00002D31619AE4211D90720F8BDD0200020A2
:10B4E00054FE0100D42C002068FE0100682E0020CC
:10B4F00000100010000000100E20EEE70D4625435E
:10B50000AD0701D19B0701D01020E6E713460A469C
:10B5100001460420009400F06AF9DEE7F8B507461A
:10B52000CD48164600790D46400701D40820F8BDE5
:10B53000002D1CD0002F1AD02868022815D20C210B
:10B54000C64C4843215800290FD001194A8908895F
:10B5500049684243521869688A4206D9002E04D0CD
:10B56000B04202D3F218824203D90720F8BD0E2060
:10B57000F8BD38461843800701D1880701D0102054
:10B58000F8BDC9183246384604F06CFA00962868AF
:10B590000C214843245800223B4602212846A0475C
:10B5A0000020F8BDF0B50446AB4883B000790D46E5
:10B5B000400702D4082003B0F0BD002C18D020684A
:10B5C00002282DD20C214843A4490A58002A27D02A
:10B5D0004018418901910289009247685143666889
:10B5E000C819B0421CD9B00705D0102003B0F0BD77
:10B5F0000E2003B0F0BDF01B114604F009FA00293B
:10B600000ED12846009904F003FA002908D1002D34
:10B6100006D001990098484371193818814202D91F
:10B62000072003B0F0BD0020024600902B462146C3
:10B63000032000F0DCF803B0F0BD87490979490721
:10B6400001D408207047002804D08549497801605A
:10B65000002070470E20704738B529DF020015D052
:10B660007D4B112A13D07E48142401780C256143A8
:10B670000818C46801796C43784D1B6A2C590093F3
:10B6800043690C30A0470420FFF706FB38BD58681B
:10B6900008210843586038BDF0B57148142201787C
:10B6A00083B051430C182669E0680C21029048438E
:10B6B0006A490127401805894189019140683F077F
:10B6C00000903869241D81B2304604F0A1F90029A8
:10B6D00044D00022019861884543009894462D1873
:10B6E000A08800230A1894195B4A13616246002A55
:10B6F00007D03A6992B28A4232D0AC4201D10028D6
:10B700002ED0029903292BD001273F0739698019D0
:10B7100089B204F07DF9504E8808F060386981B232
:10B72000204604F075F900292FD0AC422DD001201D
:10B7300000070069A4B2AFB281B2384604F068F9DC
:10B74000054601200007006981B2204604F060F937
:10B7500085420ED1381B8008306116E00122B9E71E
:10B76000386981B2304604F053F93B4948610320FF
:10B770000CE001200007016900698DB281B220460A
:10B7800004F046F9681A800830610220FFF784FA55
:10B7900003B0F0BD38B5324C142120780C25484355
:10B7A0000019C36801796B432C4D0022ED582A4BD8
:10B7B0001B6A009343690C30A84721781422514337
:10B7C000002009190871C88002220861CA60486116
:10B7D00008816178491E61702178491CC9B22170C5
:10B7E000142900D120700020FFF756FA38BDF8B5B3
:10B7F0001B4C069E6578142D2CD027787D19142DAE
:10B8000000D3143D14277D432D1928716A610868FF
:10B8100049682961E860EB802E8160780E49401C00
:10B8200060700878002813D1207814225043001942
:10B83000C2880A620079012804D0032806D00428AF
:10B8400006D103E00120FFF727FA01E0FFF724FF0C
:10B850000020F8BD0420F8BDD0200020682E002074
:10B86000D42C002000207047F3B589B00D4620206D
:10B870006946088468780C2103274843FC4E3B4600
:10B880008019008908AA6946AADF002841D1687892
:10B8900028214843F74C694600190A8C083004F007
:10B8A0001AF90028687807D0282148430119496807
:10B8B000002916D0F04E15E00C2141438919897AF0
:10B8C000890726D4282148430019002101604160DE
:10B8D0008160C160016141618161C1610162416258
:10B8E00017E0E64E27506846028C687828214843C6
:10B8F000001942606878484300196946083004F02E
:10B90000B1F868782821484301193823282209987A
:10B91000B04700200BB0F0BD70B50C460146607812
:10B920002822D44D504340193823FFF7F7FD002853
:10B9300007D161782822514349194A68521C00D125
:10B940004A6070BDF8B50546407828214143C94A90
:10B950000C238A189446584300245268C44B274647
:10B96000C01826469646002A0BD0837A1A46DB0971
:10B9700007D0530605D4BF4A6446734656589FB253
:10B980000834008933463A462146A9DF0B281BD0EC
:10B99000002800D0BA48012E15D168780C21484300
:10B9A000B349B84A401800890C21A7DF00280AD003
:10B9B000B549884213D0082811D0891C88420ED07E
:10B9C00011280CD00020F8BD68780C214843A84904
:10B9D0000123401800893A462146A9DFDDE7A8483F
:10B9E000F8BD002806D0FF21017041708170C17040
:10B9F00000207047A5487047FFB5A54893B0006880
:10BA00001C9F1D461646002870D0782F6ED8FF2048
:10BA1000694648708870C870002008700871044634
:10BA200005970695A1B20AAA9A48FFF7CCFC002810
:10BA300006D108220AA9139804F04DF8002817D05F
:10BA4000641C032CEED368468478FF2C4ED01498E7
:10BA5000032810D090481C21281A03F0D9FF012791
:10BA6000032820D204A802908C48002E0DD011E0AB
:10BA700068468470E7E7782F03D040206946087154
:10BA800076E020206946087172E039464268A1409C
:10BA900011426BD039464268A1408A43426020205F
:10BAA0006946087151E07E481C21281A03F0B0FF56
:10BAB00000281CD06F482821281A03F0A9FF6C49E0
:10BAC00000282BD040206A461071764885424FD01E
:10BAD000754AA0001058A84235D104A80290C87A2F
:10BAE000844232D10020694648702EE03EE004A82E
:10BAF0000290202069460871002048700F906B4822
:10BB000010905C380C9088781C214843624940189A
:10BB10000D900CA806901820059016E030206A467B
:10BB2000107100205070D770897A89070DD451495F
:10BB3000086048608860C860086148618861C861C1
:10BB40000862486201E00D2E10D11498694602285F
:10BB5000087914D0022108436946087104A80290AC
:10BB60004B4B08461B6801A93246984717B0F0BDF9
:10BB7000694608790321084369460871EEE73843AE
:10BB8000EBE7F1B584B00498002858D0404800266F
:10BB900006604672867201250C388572394901812A
:10BBA000FF27C77204F0FDF83F493B4F08467C3041
:10BBB000CE6746608660C660066146618661C66182
:10BBC0000662002446621C206043C51928461130D5
:10BBD00004F0DAF82846102103F06BFFFF202874E8
:10BBE000A876284929832D4901224B68A240934316
:10BBF0004B602D49A2008E502D490855641C032C22
:10BC0000E1D37821684681800321C18029480090D2
:10BC100020496846FFF774FB00280ED11F4D012014
:10BC200028700498007800280CD069468888C98854
:10BC3000484381B21748FFF7B5FC05B0F0BD134883
:10BC400005B0F0BD0024A1B202AA1248FFF7BBFB69
:10BC5000002809D11C206043C01900231C2202A91E
:10BC6000FFF75CFC002827D02E7005B0F0BD000067
:10BC7000242F0020FC2E00208FB401001DB40100F1
:10BC800041800000FFFF0000023000000E80000035
:10BC9000302F0020FC2000208C2E0020F4200020DB
:10BCA000E02E00207CFE0100802E00203C2F002092
:10BCB000F5200020F9B90100641C032CC3D305B0A2
:10BCC000F0BD70B50646FF480D46007800280DD03F
:10BCD000FD49002E0CD0002D0AD02868002807D07E
:10BCE000FA4C2168002905D0F94870BDF94870BDAB
:10BCF000084670BD2060691DF74804F05CF828799B
:10BD0000A072207A0222400840001043FB23184012
:10BD10002072E1790120014311431940E1710020B3
:10BD2000307070BDE74A1378EA4A002B06D0931DA5
:10BD3000002801D0002903D11846704710467047EB
:10BD4000F0B40C68002C06D08C68002C03D000786E
:10BD500000281AD102E0F0BC18467047DB480068A2
:10BD6000002812D00020DD4B844602460324DC4D1F
:10BD7000EE7A864202D1AD7AAD0725D40D7B95428D
:10BD800010D91D78ED0703D00CE0F0BC10467047C9
:10BD90001C25D44E4543AD198E689700F551D24D00
:10BDA000A854521C0E7966450ED91D78AD070BD4E8
:10BDB0001C25CC4E4543AD1967460E68BF001035B3
:10BDC000F55165466D1CAC46401C1C33641ECED13B
:10BDD000604608710A73F0BC00207047F0B5B94D99
:10BDE000BC492A7883B0002A1ED0002803D00278EC
:10BDF000002A19D102E0B44803B0F0BDB34A12687A
:10BE0000002A11D08178032911D21C20B54E484355
:10BE10008019807EFF280AD00C466A46B348FFF797
:10BE2000D2FA070006D024E0084603B0F0BDB048BF
:10BE300003B0F0BD78216846FFF7B4FB070018D1C6
:10BE40001C20604386193046113003F09DFF3046B8
:10BE5000102103F02EFEFF213174B176781E30835D
:10BE600001206968A040814300206960A14AA100C7
:10BE70005050384603B0F0BD30B5044691480D46E9
:10BE80000178944883B000292AD0811D002C26D047
:10BE9000002D24D02178002922D18C49096800295D
:10BEA0001ED060789249002819D18D48807A0128E7
:10BEB00015D0A078032812D21C225043894A80183A
:10BEC000807EFF280BD0E96800290ED0AA68002ADE
:10BED0000BD0202A09D22878012803D005E0084693
:10BEE00003B030BD844803F0BDFDA1786A467F48A9
:10BEF000FFF769FA2878814980000A582146684688
:10BF0000904703B030BD70B505466E48714A007861
:10BF100084B00C4600281FD0901D002D1DD0002C91
:10BF20001BD0A168002918D02878002814D16748B0
:10BF30000068002810D0A978032910D21C20694B72
:10BF40004843C018807EFF2809D06548C37A8B42D9
:10BF500008D1807A000705D4104604B070BD64484B
:10BF600004B070BD6068042802D2072004B070BD20
:10BF7000634E6A465D48FFF726FA0028F6D164232F
:10BF80000422694602A8FFF7C9FA002803D10298E3
:10BF9000401C00D05B4E64230422211D6846B0473C
:10BFA0000028E3D1682310226846A168FFF76FFAE2
:10BFB0000028DBD1AA784F4B9200A168995004B0B9
:10BFC00070BD10B50C463F4984B00A784149002A3B
:10BFD0002FD08A1D002805D0002C03D00278002A1B
:10BFE00027D102E0104604B010BD384A1268002A7A
:10BFF0001FD0817803291FD21C223A4B4A43D21802
:10C00000927EFF2A18D0A3683A4A002B17D08900E5
:10C010005350817802AA3548FFF7D5F90028E2D1BC
:10C020006423042202A901A8FFF778FA00280AD0A5
:10C0300018E0084604B010BD2D4804B010BD8900BA
:10C040005158A160E5E70198401C0BD068231022ED
:10C0500002A9A068FFF762FA0028EED10199616099
:10C0600004B010BD284804B010BD30B504461548D2
:10C0700083B001781748002953D0002C53D0217881
:10C0800000294ED1114900250968002949D0A1781D
:10C0900003294BD21C20134A48438018807EFF2876
:10C0A00044D06A461148FFF78EF9002839D164233D
:10C0B0000422694602A8FFF731FA0299491C30D0E0
:10C0C000642323E0F42000200E800000302F0020A5
:10C0D0000480000008800000342F0020A62E0020DD
:10C0E000242F00208C2E0020F5200020FC20002092
:10C0F00010800000802E0020042F002080FE010010
:10C100001DB401008FB40100408000000422F949F1
:10C110006846FFF7BCF9002803D1A178F64A8900E8
:10C12000555003B030BDF54803B030BDF44803B0FE
:10C1300030BD0B4610B5F349F34A097800291FD0EA
:10C14000911D002805D0002B03D00178002917D1BC
:10C1500001E0084610BDED490968002910D081783A
:10C16000EB4AFF290ED01C204143EA480918887E7B
:10C17000800705D407221846103103F073FC002213
:10C18000104610BD4078FF28FAD00C214843E24900
:10C190004118887A8007F3D50722184603F062FC1D
:10C1A0000022EDE7F0B5054699B000200290D54891
:10C1B000FF260078002854D0D4480068002850D0CA
:10C1C000FF20694648708870C87000210D91291DB4
:10C1D00004912A2369468B8200200870CE4C2A885D
:10C1E000E17AA07A102A0DD0AA880223184209D039
:10C1F000CA4B9A4202D02389934203D16B46002254
:10C2000099705A70C44AC14F2B8812787F7A172BC5
:10C2100076D019DCC24F0B97C24F0A97C24F0997CD
:10C22000BC4F102B3F8B0897BA4FBF8E0797BF4F5D
:10C23000BC463F8A17D0112B7BD0132B7AD0142BFE
:10C240000FD1FF2977D0DFE0B049B94E897A8A0053
:10C25000182B71D01C2B70D0522B02D1B1586846CC
:10C26000884719B0F0BDC007C00FFAD00222A272F1
:10C2700011236A46002113735170A9882181204639
:10C280000722A91D03F0EEFB287DC10706D0410857
:10C29000A848405CFF2823D0064621E09F48AD1DFA
:10C2A00015D0072229460B9803F015FC002828D04A
:10C2B000072229460A9803F00EFC002823D0072203
:10C2C0002946099803F007FC002808D0E1E1089905
:10C2D000814216D00799814215D0874261D102264A
:10C2E000E672A27A08231A43A27268468670314623
:10C2F0006D4606AA9048FFF766F8002805D0C8E109
:10C3000028E10026ECE70126EAE7684640781C2190
:10C3100048438A491C2340181A4606A9FFF7FEF82D
:10C320007A48807A810086484258294606A8904774
:10C33000AFE103E071E035E080E1A7E1FD210840D5
:10C340000027A072010706D5C00925D00021684644
:10C3500000F0B8F920E068468578FF2D1CD01C203D
:10C36000294641436B480E183046113003F00CFD4E
:10C370003046102103F09DFBFF213174B1766748F0
:10C380003083604801224368AA40934343605A487F
:10C39000AA008750684681701021A1721220694658
:10C3A000087376E1E989089A8A4213D0079A8A428B
:10C3B00012D08F422AD1022108221043E172A072CA
:10C3C000684681706E4606AA5B48FEF7FCFF0028AF
:10C3D00004D016E00021EFE70121EDE76846407840
:10C3E0001C21484355491C2340181A4606A9FFF74B
:10C3F00095F84648807A810051484258314606A84F
:10C400009047E07AFF2801D04C480290414AA88822
:10C410000023029982DF19B0F0BD13236E463373F7
:10C4200004231843A072FF2923D0162131734549F4
:10C4300000228A60CA600A614A618A61CA610A622E
:10C440004A6240221043A07200201190E27A1C211F
:10C450004A43304913905118129138490E910F9068
:10C460001090A8880EAB384A00217FDF0028D2D177
:10C470000FE128483549837EFE262746FF2B09D049
:10C480003348837DFF2B14D06046807CFF281ED06C
:10C490000D91D9E7022A07D0FD2181760722214696
:10C4A0000B9803F0DFFA00E0867600210846084387
:10C4B0001CE0022A07D0FD218175072221460A9837
:10C4C00003F0D0FA00E08675012108460EE0022A4A
:10C4D00008D0FD206146887407222146099803F0A0
:10C4E000C1FA01E0604686740221084669468870F8
:10C4F000F872A9E77CFE0100802E00200E8000006B
:10C5000010800000F420002008800000302F002060
:10C51000058000008C2E0020242F0020FFFF00004B
:10C520009C2E0020B82E0020D42E0020CC2E0020DF
:10C53000A0FE0100F5200020FC200020E02E0020BD
:10C5400090FE0100FC2E0020342F002043800000CC
:10C55000AC2E0020964B7E0876005E72FB231840BE
:10C56000A07214236E463373AB79002B2BD00E468A
:10C5700006AA9048FEF727FF002821D1782106A8B7
:10C58000FFF710F800281BD137461C2046438A4885
:10C5900036183046113003F0F7FB3046102103F017
:10C5A00088FAFF203074B0768448308384480121B3
:10C5B0004268B9408A43426000208249BA008850EC
:10C5C000A8790D9065E0EB795B0762D5B678FF2E10
:10C5D0005FD008273843A072E87A800708D51C206E
:10C5E0003546454374482818857E6D086D0085766C
:10C5F000FF294ED0022A11D01C206F4D46437019DE
:10C6000021460722103003F02DFA684680781C215D
:10C6100048434019817EFD22114009E06A48418A61
:10C620001C204643644830180183817E4908490034
:10C6300081760121684600F045F82AE0A9790B09C6
:10C64000012B1AD10907090F012916D1002305076B
:10C6500013D55E4A02219360D360136153619361E5
:10C66000D3611362536216226B461A736022104321
:10C67000A0724F480F4347720BE080210843A0721D
:10C68000152168460173B158884702E013206946B6
:10C690000873474B68461B6803A90D9A984768467C
:10C6A000007B122800D0B6E6A17A20460129FAD0F4
:10C6B0000121817241490181FF21C17203F071FBA7
:10C6C00019B0F0BDF0B50E4683B0044681786A46D5
:10C6D0003848FEF778FE002825D160780C213C4FC1
:10C6E0004843C019807A40061FD4022E1DD0012E67
:10C6F0001DD0384DA0781C2148432F4900234118F4
:10C700001C226846A847002813D0022E0BD02078A0
:10C710000C21484326494018807A2F4980000A5846
:10C7200021466846904703B0F0BD2C4DE2E72C4D02
:10C73000E0E7022EF7D060780C214843C019817AD7
:10C74000BF221140817260781C2148431E49411864
:10C750001C231A466846A847D9E7002070470020E6
:10C76000704710B5FFF780F810BD0020704700201B
:10C77000704770B50C46014660782822134D50432F
:10C7800040193823FEF7CAFE002807D16178282215
:10C79000514349194A68521C00D14A6070BD0020BB
:10C7A00070470020704710B5FFF7CCF810BD0000AF
:10C7B000302F0020FC2000208C2E0020FFFF0000E6
:10C7C000F4200020802E0020E02E0020FC2E0020EF
:10C7D000242F002065B8010080FE01008FB4010005
:10C7E0001DB4010010B5FBF785FC10BD7047F8B50E
:10C7F000097800290AD003220121FCF75FFF0028F5
:10C8000003D000221146FBF79FFCF8BD08210088E9
:10C810006A46118001231E49AADF1E48006880472E
:10C82000B12044DF002803D000221146FBF78CFC26
:10C8300011DF002803D000221146FBF785FC164CBF
:10C84000606913DF002803D000221146FBF77CFC4F
:10C850000120124A8105116011490B68114D002118
:10C8600002468A401A420BD04AB2002A08DBD6069A
:10C87000F60E0246B2402A60BFF34F8FBFF36F8FB0
:10C88000491C2029ECD36069FFF7ACFFF8BD00001C
:10C890008E2F0020042100200010001080E200E014
:10C8A00000E100E080E100E010B5B0480178022925
:10C8B00003D000221146104610E0022181700020B2
:10C8C00000F067FE002803D000221146FBF73CFC75
:10C8D00000F0E7FF002803D000221146FBF734FCEC
:10C8E00010BD10B5044684B000206A4610700C29B3
:10C8F00004D0002211461046FBF726FC20780D28B4
:10C9000078D201007944097949188F44060A3A42DD
:10C9100084515D8C74787C80960001206946087093
:10C920009EE003A812DF002803D000221146FBF787
:10C930000BFC6846007B002810D00E2045DF002845
:10C9400003D000221146FBF7FFFB042044DF002840
:10C950000DD000221146FBF7F7FB08E08448C169BF
:10C960000E229143C161C16904221143C1617F4814
:10C970000178002901D00021017002206946087069
:10C980006EE07A480078002866D103206946087076
:10C9900066E0042168460170A0680290E17968466B
:10C9A000C1712179017161794171A179817157E07A
:10C9B000062168460170E188C180A18881802189B3
:10C9C0000181618941814BE0684C6068401C606076
:10C9D000022806D06078032803D100F091FF0028D8
:10C9E0003AD02078002802D107206946087000203C
:10C9F000606031E046E009206946087030E00A20B6
:10CA0000694608702CE00B206946087028E00C206D
:10CA10006946087024E0052168460170217901719A
:10CA2000617941711CE051480178002901D0002151
:10CA3000017008206946087012E04C480078002810
:10CA40001CD000214B4A0846FDF735FB002803D0D7
:10CA500000221146FBF778FB6846007800280BD0CF
:10CA600042480C2182686846FDF725FB002803D068
:10CA700000221146FBF768FB04B010BD0D2069468B
:10CA80000870EDE7002211461046E3E7026D002A28
:10CA900002D00378032B01D90720704710B5334922
:10CAA0004B708A6000224A60011D334800F0D2FBBF
:10CAB00010BD10B5012000F06CFD2C4A02219170D0
:10CAC00010BD10B500F07BF810BD10B5274C00204C
:10CAD0002178002903D100F0E4FE0221217010BD6D
:10CAE00010B5224CA478022C01D0032010BD00F018
:10CAF00003FD0728FAD1002010BDF8B51B4E012513
:10CB0000B478684612DF002803D000221146FBF7F4
:10CB10001BFB68460078002810D00E2045DF002857
:10CB200003D000221146FBF70FFB600044DF002812
:10CB30000DD000221146FBF707FB08E00C48C16945
:10CB40000E229143C161C16962001143C161B07895
:10CB5000022806D0002211461046FBF7F5FA2846B7
:10CB6000F8BD012000F0BCFE0546F8E70C210020CE
:10CB700000050040A9C80100E3C80100FE48407854
:10CB8000002808D0BFF34F8FFD49FC48C860BFF3B1
:10CB90004F8F00BFFDE7704770B50C460546FDF7A7
:10CBA0000FFA002803D000221146FBF7CDFA0C2C17
:10CBB00004D1F14A214652692846904770BDF0B52C
:10CBC000ED4C85B0206AFDF7ACFC6846FEF735FDFC
:10CBD000002809D1009801250426002806D0657098
:10CBE000A0693043A061002005B0F0BDA089E54FE9
:10CBF000B84206D0132176DF0028F5D1A781A570B1
:10CC000010E0FDF76DFF0028EED174DF6846FEF7F7
:10CC100014FD0028E8D10098002806D06570A069AE
:10CC20003043A061002005B0F0BD0C2069460871BA
:10CC30000146D54A01A8FDF73EFA05B0F0BD10B592
:10CC4000CD488179002908D1D04980897EDF00282C
:10CC500003D000221146FBF777FA10BDF7B508782C
:10CC60000126C54C86B00F46002A01D0322815D0C7
:10CC7000142836D0422810463AD0002803D000228B
:10CC80001146FBF761FA3878212864D033DC11288B
:10CC900054D014285FD0152840D167E0002501A8A2
:10CCA0000195FEF7CAFC0028E9D10198002805D0BB
:10CCB0006670A16910200143A161E4E7684606722D
:10CCC000049502A9B2480595FFF7D6F8054608284D
:10CCD000D5D00028D7D000221146FBF735FA2846D8
:10CCE000CDE7842ACFD0812ACDD01000C7D1CAE7A2
:10CCF0000028C4D1C7E7222871D103A8FEF79DFC04
:10CD0000002803D000221146FBF71EFA03980028E2
:10CD100005D06670A06908210843A0615FE001A802
:10CD200071DF002803D000221146FBF70DFA01A99C
:10CD3000974800F029FE002862D150E006988078DC
:10CD4000FF284CD0012100228903E069FDF77DFB1B
:10CD5000002855D143E006998E480A7802734A7834
:10CD600042738A788273C978C17338E0A671E0791A
:10CD7000002814D120696946828DCA81028D4A81BA
:10CD8000C28C0A81408D888102A8FDF701FF11281D
:10CD900005D0002803D000221146FBF7D5F97C48C6
:10CDA000807803281BD2E670A079C007C00F16D088
:10CDB000A0897449884212D00020E07003A8FEF7D1
:10CDC0003CFC002803D000221146FBF7BDF9039874
:10CDD000002807D06670A06920210843A0610020C8
:10CDE00009B0F0BD01A871DF002803D00022114670
:10CDF000FBF7AAF901A9664800F05AFE0028EED018
:10CE000000221146FBF7A0F9E9E7F0B505460068F6
:10CE100001270078584C00268BB008287AD20100F0
:10CE20007944097949188F442D2D032D476265688F
:10CE30002078401CC0B220702179884222D320691A
:10CE40006946828DCA84028D4A84C28C0A84408DD0
:10CE5000888408A8FDF79CFE112805D0002803D07F
:10CE600000221146FBF770F90AA80A96FEF7E5FBC7
:10CE700005001AD10A98002806D06770A069102111
:10CE80000843A0610BB0F0BD68460774069604A97C
:10CE90003F480796FEF7F0FF0546082806D0002811
:10CEA000F0D000221146FBF74FF928460022114628
:10CEB000FBF74AF90BB0F0BDA868002804D10022A6
:10CEC00011461046FBF740F90321684601702979A5
:10CED000017169794171A9798171E979C171A86894
:10CEE000029062690C21684690470BB0F0BD277232
:10CEF0000BB0F0BD26720BB0F0BD04216846017086
:10CF000029790171A979417162690C2190470BB0AF
:10CF1000F0BDFFE7002211461046C9E7072807D0F9
:10CF2000002805D010B500221146FBF70DF910BD01
:10CF30007047002805D010B500221146FBF704F910
:10CF400010BD7047002210B511461046FBF7FCF8E3
:10CF500010BD70B584B00546302904D000221146BA
:10CF60001046FBF7F1F828880026034C01282ED044
:10CF70002846FFF717F90FE0182100200400FA05F2
:10CF800000ED00E0FFFF000099CB010048210020E8
:10CF900044210020382100202846FDF7A7FD28461F
:10CFA00001F093FD284601F099F92946FE48FBF768
:10CFB00041FB288810380A2845D2010079440979B4
:10CFC00049188F440E1A744147824B6C8235287A77
:10CFD0006179081A40B26071002800DA667104B005
:10CFE00070BDA888A081A6712670012069460870CE
:10CFF00062690C216846904767E00020C043A08129
:10D00000E671A078002807D0FFF7D9FD002803D0EB
:10D0100000221146FBF798F801F0CCF9002854D112
:10D0200002206946087062690C21684690474CE00E
:10D0300001F0C0F9002848D10620694608706269ED
:10D040000C216846904740E0E069FDF76AFA01204C
:10D05000E0713AE0E069FDF764FA36E0A87900286B
:10D0600013D0012802D002280FD107E00920694619
:10D07000087062690C216846904706E00A206946FC
:10D08000087062690C2168469047E069FDF749FA2B
:10D0900000281AD000221146FBF756F815E00B20A5
:10D0A0006946087062690C21684690470DE00521C9
:10D0B00068460170E98881802989C1806989018178
:10D0C000A989418162690C2190472946B748FCF73C
:10D0D0000DFC04B070BD10B504460088012806D1CF
:10D0E000B3480069816B002901D020468847B14AC6
:10D0F00030212046FCF7DFFF002803D00022114634
:10D10000FBF722F810BD70B586B00446042904D0A0
:10D11000002211461046FBF717F826683046FEF746
:10D1200082F8022E7DD1A24C6078002879D00025AB
:10D1300068460095FEF781FA002803D000221146C8
:10D14000FBF702F80098002872D1A069C10718D037
:10D1500040084000A061206AFDF7E3F9002803D0F1
:10D1600000221146FAF7F0FF68460571924A0C2139
:10D1700001A8FCF7A0FF002803D000221146FAF70F
:10D18000E3FFA169080711D50820814301A8A16127
:10D1900071DF002803D000221146FAF7D5FF01A95C
:10D1A000864800F0F1FB002838D13DE0880611D513
:10D1B0002020814301A8A16171DF002803D0002253
:10D1C0001146FAF7C1FF01A97C4800F071FC002864
:10D1D00024D129E0C80610D510208143A161012087
:10D1E00069460872049502A974480595FEF744FE45
:10D1F000082819D0002811D116E0480714D50420BA
:10D200008143A1610C2069460871FFF7D8FC6A4A86
:10D210000C2101A8FCF74FFF002805D00022114681
:10D2200000E005E0FAF790FFA069002800D16570E2
:10D23000304601F07BF806B070BD01B5604A0421AC
:10D240006846FCF738FF002803D000221146FAF7A1
:10D250007BFF08BDF3B500258BB006460A95002874
:10D2600013D0534C574820613C220C9902F033FCF8
:10D2700000281DD0544841690704491C08D0396969
:10D28000406989B202F0C4FB03E007200DB0F0BD95
:10D290007869396948434D49884204D200221146D1
:10D2A0001046FAF751FF0F2246480C99FCF724FE6E
:10D2B00066612069464E406BA062A571E571002051
:10D2C0002572C043A08165712571304602F06FFD63
:10D2D0004048414A8564C564056545658565C56501
:10D2E0003348002145816570A5703C48A561FDF774
:10D2F00083F80028CAD121696A46C88D1082084681
:10D300002030037C9374407CD074087F10753448BF
:10D310000290012080020390324800903248019030
:10D32000104601F0FDF80028B0D100234822294919
:10D330001220FCF72DFE002803D000221146FAF738
:10D3400003FF0695012069460795087606A860DF69
:10D35000002807D12548FCF73CFE002802D12448CC
:10D36000FCF73FFE002891D1FDF796FF00288DD1F4
:10D3700022690721137F042B02D908460DB0F0BDA6
:10D380003078E3275B073840DB0E1843C3065B0F9A
:10D390003070032B35D002231843C0B20127384325
:10D3A00030707170102125E0E02F0020F82F002050
:10D3B0001821002053CF010099CB01004421002007
:10D3C00007D10100B0FE010000100010BFFE0100F7
:10D3D00048210020982F00203FCC0100342100205C
:10D3E000B0FF01000BCE01001DCF0100D7D001001E
:10D3F0003BD20100B170517F002905D020210843A4
:10D4000004E0FD231840C8E7DF210840FC4908700C
:10D410000C9820308678FB48FEF7E3FA002832D1DA
:10D4200008A8067109A8FEF7ACFB00282BD107A8B5
:10D43000013002F0A2FC6A46507FF14940080A78A8
:10D440004000D307DB0F1843FD2318409307DB0F81
:10D450005B001843E3231840D3065B0F9B0018437F
:10D460009206DF23D20F1840520110436A465077CC
:10D47000487890778878D077E3480690177706A9A0
:10D48000E248FEF71EFC002800D077E7DF4800F0F6
:10D49000CCFC0028F9D1DE4A0021DE48FCF7ACFFC5
:10D4A0000028F2D1DC4A0021DC48FCF7A5FF002867
:10D4B000EBD10AA8FEF7C1F80600E6D10A980028C9
:10D4C00004D06770A0693843A0610CE06846057617
:10D4D000D34A0C2106A8FCF7EEFD061E03D000225D
:10D4E0001146FAF731FE30460DB0F0BD0246CD4888
:10D4F0000121808980DF704770B51646C94C02460D
:10D50000A07984B01D4600280BD020692030807C93
:10D51000002809D00523E356984205DCC24804B030
:10D5200070BD082004B070BD207A002819D080207A
:10D530006B461872009601950B46A56A02A9BB4876
:10D54000A8476B46197A0820C90702D0B74801F0EE
:10D55000DCFA6946097A890708D5B44801F0F5FA7A
:10D5600004E00B462946304601F0C3FA0028D9D121
:10D570006179491C617104B070BD10B50146AC48B9
:10D58000FBF72AF9002803D1A6494A79521C4A71AF
:10D5900010BDF1B592B001F0FFFAC01C052802D908
:10D5A000042013B0F0BDA348FF250068AD0200249D
:10D5B000401C31D0287801282ED1688800282BD033
:10D5C000EB686A68A9682868039301920291009049
:10D5D000AB696A69286904900592032006930003E9
:10D5E00080680022FDF73AFB6946488069888842D6
:10D5F00012D001200007006981B2284602F008FA23
:10D60000C0B2FCF7A2FC0028CBD11C2269462846F8
:10D61000FCF772FC0028C4D100234822864912205E
:10D62000FCF7B6FC002803D000221146FAF78CFD67
:10D630000094012668460194067060DF002807D137
:10D640007E48FCF7C6FC002802D17D48FCF7C9FCE7
:10D650000028A6D1734D694611202F6908723868D9
:10D6600002F032FA82B202A839687CDF002898D131
:10D67000B88C78DF002894D1F98C68460180398D08
:10D680004180798D8180B98DC1807ADF002888D171
:10D690002F696846B97D0170B98A4180398B8180D4
:10D6A000798BC180402102A802F003FA7968002931
:10D6B00002D002A8FBF7F8F9B968002902D008A83F
:10D6C000FBF7F2F9F968002902D00AA8FBF7ECF998
:10D6D0003969002902D006A8FBF7E6F968461090E0
:10D6E0000120014610A8103101710020014610A848
:10D6F000417102A8FBF7F7F8002885D10094019446
:10D70000029403946846049406714E4840780028B9
:10D7100000D04C4802906421684601730120014604
:10D72000684610314173012001466846103181730B
:10D73000002001466846C173012001466846103149
:10D74000017469463A48FAF7A2FF00288FD13E4893
:10D7500001903E48029069463D48FBF7DCFF0028F7
:10D7600085D130483B4AC36A286969691E3000F098
:10D7700087FB00288BD129690194029403940494B7
:10D7800005940694CA8C684602840A8D42844A8DA8
:10D7900082848A8DC28408A800900520C00301906D
:10D7A0000F200004029003216846017304742A4884
:10D7B0000690091F6846C181FDF761F900289CD1D8
:10D7C0002B6907201C7F042C00D9EAE60C49E325CD
:10D7D0000A7864072A40E40E2243D406640F0A70D4
:10D7E000032C3BD002242243D2B232430A70487049
:10D7F00010208870587F002833D02020024332E068
:10D8000048210020442100205DCC0100212100207E
:10D810007DCB01003821002009D901003C210020E6
:10D8200099CB010018210020043000004D21002078
:10D83000E02F002014100010982F0020D7D00100F6
:10D840003BD2010022210020EFC7010033CF0100AD
:10D85000F82F00201E21002045CF0100FD2422408A
:10D86000C2E7DF2002400A7001F028F80400ACD1C2
:10D870001298002812D0002000F096FC00280AD050
:10D8800000F014FB041E09D000221146FAF75CFCDC
:10D89000204613B0F0BD032013B0F0BD204613B0F6
:10D8A000F0BD36480169002901D10820704710B544
:10D8B000808900F05BFD10BD10B500F0B7FE10BD13
:10D8C000F0B583B0089F099E012903D12B4D2C7917
:10D8D000641C2C710097019600F036FF03B0F0BD78
:10D8E000F0B4264C264DA0890126A84205D000267A
:10D8F000132176DF002800D1A5813046F0BC7047A7
:10D9000010B500F05AFD10BD10B51C4C84B0E07885
:10D91000A17908421BD0A0891949884217D019481B
:10D920008078032813D20020E07002A8FDF785FE5E
:10D93000002803D000221146FAF706FC02980028BE
:10D9400007D001206070A06920210843A06104B0C5
:10D9500010BD684671DF002803D000221146FAF797
:10D96000F3FB6946074800F0A3F80028EFD0002237
:10D970001146FAF7E9FB04B010BD000018210020A1
:10D98000FFFF000044210020F3B581B0060008D05D
:10D990000298002805D0B078032805D3072003B0EB
:10D9A000F0BD0E2003B0F0BDFE480178002902D082
:10D9B000082003B0F0BDFB4802210170B1781C22A1
:10D9C00051430818017900290BD0476900256846A2
:10D9D000FEF707F8317868460170717841700024CD
:10D9E00042E0F04900250879002802D04869002863
:10D9F00058D8ED480278002A02D00A6BAA4253D8C0
:10DA0000007F002802D0C86CA8424FD86D1CB078A7
:10DA10001C214843E34F029CC019072221461830BD
:10DA200002F059F8002808D0B0781C214843C019EA
:10DA300007222146183002F015F8B0781C2148431F
:10DA4000C0194561B0781C2250430121C0190171F1
:10DA5000B0785043C11930460831FEF754FA002817
:10DA6000A7D1387003B0F0BD684684701C202146F1
:10DA70004143CC480918087900280CD04869A842CD
:10DA80000ED8B84207D9401E486168460831FEF7F3
:10DA90003AFA0028E6D1641CE4B2032CE4D3B6E7DA
:10DAA0000546EEE70546A4E71546A9E70546ADE7B6
:10DAB000F3B583B0060008D00498002805D0B078EC
:10DAC000032805D3072005B0F0BD0E2005B0F0BD3A
:10DAD000B4490878002802D0082005B0F0BD012024
